:020000020000FC
:1000000009C0189518951895189518951895C9CB85
:100010001895189502E00EBF0FE50DBF002704BB31
:1000200005BBC09AC19AB89AB99A8D9A9598949A34
:100030008C9A939A8B9815DB8E9A969A8F9A979AA8
:1000400052DC03E003BF02E009BF00E00093780147
:1000500000938D0100938E0100938F010093930113
:10006000009394010093900100938B0103E00093AF
:10007000790100E000938A019EE1CBD7CCD9E5D984
:10008000F5E1E4E516DA00E420DAF5E1EAE611DA72
:100090009FE5BFD7DCD910E100E2E6D992E0B9D7FD
:1000A0001A95D1F7D6D9D1D938E3F3E1EEEDC4D919
:1000B000CCD9F5E1E0E8FDD9CFDAB2E0A0E60B2F2C
:1000C0000A270D93B038D9F7B2E0A0E61B2F1A2704
:1000D0000D91011719F4B038C9F705C0C2DAF5E17E
:1000E000E2EAE7D9FFCFBDDAF5E1EEE9E2D9B4DA29
:1000F0000DE40093D74D09ED0093D84DB2DA00E43A
:10010000E4D9F5E1EEE8D5D96FD8F5E1EEE9D1D93A
:100110009EE17FD79AD917D5C4DA07DB7894E5C179
:1001200000918B01077F00938B01FFDA00918B0117
:100130002227332701FD306800FD316010E0C2DA6C
:1001400000918B0102FD20C001E00093110100919C
:10015000790100931201FED50091180104FD5DC1E3
:1001600034D708F05AC10091190100937B01009126
:100170001A0100937C0100911B0100937D01009105
:100180001C0100937E0104C0009179017EDCEBCF5D
:1001900000270093890108E000937F0100E00093AD
:1001A000800108E00093810100E0009382010027B4
:1001B0000093830100911D010093840100911E01B1
:1001C0000093850100911F01009386010091200199
:1001D00000938701002700938801E8D2B0E0A0E6F1
:1001E000209179011FD70FE20D9320917A011AD740
:1001F00055D700E46AD9B0E0A0E686D902D300E082
:1002000000937801B7D000918101083011F0B2D08D
:10021000FACF00918B0103FD02C0B2996DC000912D
:10022000810110917F01442710172FB720FF4395BC
:100230000395039510172FB720FD4395423051F0D9
:1002400000918801003A48F000918901002311F4DF
:1002500091D003C000270093880103DA08B706FF96
:10026000D8CF97D26FD2B0E0A0E600E20D930D9305
:100270000D9300918B0103FF0BC000E50D9301E48A
:100280000D9305E50D9303E50D9305E40D9307C06C
:1002900015E026DA232E11241BD70BE40D9300E280
:1002A0000D9314E01DDAEDD93F9312D70AE30D93B5
:1002B0002F91B8D6F3D6B0E0A0E638D9FAD30091A2
:1002C00078010023B9F0112710937801053009F463
:1002D000A4C0063009F4ADC0083011F4B6D00AC08D
:1002E000073011F4E8D006C0043009F4F6C003303A
:1002F00009F4ECC086D28DCFAFD9B0917F01A09127
:10030000800108DA0091880103950093880120900C
:10031000840130908501409086015090870100242F
:1003200000E2201A300840085008209284013092E0
:100330008501409286015092870140F0222039F4D5
:10034000332029F4442019F4552009F466C0B83448
:1003500011F4B8E0A0E0AA2329F4009181010B1761
:1003600009F402C0B299CDCF7CD9B0937F01A0939C
:10037000800155CF20907B0130907C0140907D0121
:1003800050907E014BD4D090830120907400309027
:100390007500409076005090770000242D0C301CA2
:1003A000401C501C209274003092750040927600E0
:1003B0005092770001E000937800D0918101C091C4
:1003C000820130D7D83411F4D8E0C0E0D093810155
:1003D000C0938201D09083010091FC00D394D01689
:1003E000C9F4DD24D092830120907B0130907C0100
:1003F00040907D0150907E0136D418F401E00093C6
:10040000890120927B0130927C0140927D015092C3
:100410007E010010D0928301089587D9009179015F
:1004200010917A010395101708F401E00093790107
:1004300077CE7BD900917901013011F00A9502C085
:1004400000917A01009379016BCE00918A0100231B
:1004500009F0045000938A01102F8ED902D9B0E020
:10046000A0E6112420908A01269400E2222009F0BF
:100470000DE20D932DD604E60D9302E40D93A736FD
:1004800019F000E20D93FBCF10918A011095143101
:1004900020F4169516951D9304C005E00D93145194
:1004A000F6CFFCD500E011D84DD800E00ED8B0E072
:1004B000A0E62AD8089500918A010C3F11F014E0BB
:1004C000010F00938A01102F57D9C8CF00918B01DB
:1004D00018E0012700938B010DCF27D900918B01E4
:1004E0000B7F00938B0111D306C000E000937801CD
:1004F00001E00093740100E0009311012BD40091FE
:1005000013010093730100E00093210101E00093C7
:10051000110100917401009312011CD447D1B0E085
:10052000A0E6209174017ED50FE20D932091730116
:1005300079D5B4D500E4C9D7B0E0A0E6E5D7B0E0FE
:10054000A0E60090200110901F0120901E0106944B
:1005500017942794069417942794BBD500E20D9323
:100560000BE40D9302E60D9399D5E0D712D19AE0F2
:1005700050D50FD1829BBEC99CD200917801002337
:10058000F9F010E010937801053009F451C00630FD
:1005900009F459C0083011F458DF12C0073011F4C3
:1005A0008ADF0EC0033009F459C0043031F437D16A
:1005B00000918B0102FDB4CD9BCF023009F402C043
:1005C000C1D0D5CF0091FD0010910901011799F418
:1005D0000091FE0010910A01011769F40091FF00DB
:1005E00010910B01011739F40091000110910C01D9
:1005F000011709F4BCCF02E00093740101E00093FD
:1006000011010091740100931201A4D30BE5009332
:1006100021010EE200932201009323010DE50093D6
:10062000240100E00093250103E000937801A5CFA9
:1006300000917401109173010395101708F401E003
:100640000093740163CF00917401013019F400919B
:10065000730100100A950093740158CF709118012E
:1006600074FD0FC03BD20091740100937901009199
:10067000730100937A0100918B010B7F00938B0132
:100680004FCD009122010E3229F400912401003057
:1006900009F457C0009119010023E1F400911A01F7
:1006A0000023C1F400911B010023A1F400911C015F
:1006B000002381F40091FD00009319010091FE00D8
:1006C00000931A010091FF0000931B0100910001AB
:1006D00000931C01009119010093090100911A0176
:1006E00000930A0100911B0100930B0100911C0172
:1006F00000930C01009122010E32B1F4009123010C
:100700000E3291F400912501003071F4A5D7B0911B
:10071000D74DA091D84D11970C9100937401B093CF
:10072000D74DA093D84DE7CE97D7B091D74DA09194
:10073000D84D009174010C931196B093D74DA093AE
:10074000D84DD6CEB1E0A1E295D7102E05310CF4EC
:10075000089500917701083019F00395009377010F
:100760000830B1F71091760100917501010F0093E7
:100770007501002329F0112D1451011709F0089576
:1007800004E00093770110917601119510937601A2
:10079000089567D700E099D6D5D600E096D6B1E0A7
:1007A000A1E21091750124E1B5D608957091180168
:1007B00074FF1CC0B1E0A1E25DD7102ED1E0C1E210
:1007C0000024C10DD01D212D239508810983C1501E
:1007D000D0092A95D1F7B1E0A1E20BE50D930024F1
:1007E000A10DB01D0DE50D9300E00D9300270093C2
:1007F00075010093770101E00093760132D725D689
:10080000089500270FBD03E00EBD00270DBD0CBDF0
:1008100000E70BBD00E00ABD08EE08BF089595E0B3
:10082000F8D301E000938C0110D600918C010130C7
:1008300019F4F5E1E4EF24C0023019F4F6E1E6E042
:100840001FC0033059F410918B0106E011FD07E041
:100850000BD600E209D6F6E1E8E112C0043059F403
:1008600010918B0106E010FD07E0FED500E2FCD5FB
:10087000F6E1E6E205C0053019F4F6E1E8E300C070
:1008800018D600E422D6B0E0A0E620918C01CAD3AD
:100890000FE20D9325E0C6D300E20D930FE70D9311
:1008A0000EE70D93FBD3B0E0A0E62ED69EE0B1D3C9
:1008B00000D100917801002379F110E010937801C4
:1008C000053041F420918C01253021F023952093AF
:1008D0008C0122C0063041F420918C01213021F09E
:1008E0002A9520938C0118C0043009F40895033030
:1008F00009F012C020918C01213009F40EC0223081
:1009000009F40BC0233009F44DC0243009F451C060
:10091000253009F455C088CF87CFE4D8D8F5DED08C
:10092000FBD80091414B00937A01002371F1BBE4A5
:10093000A2E401E091D60D930395E9F700918B01B4
:10094000046000938B0101E00093790120918C01F8
:10095000223009F0089520917A01BBE4A2E4D4E0AA
:10096000C0E0002412B6C10DD01D76D620907A01C9
:100970006AD66DD6FBE4E2E4E00FF01D0C91108125
:1009800000831D932A95A1F708956BD65ED5F5E1F6
:10099000E2EE04C066D659D5F5E1EEEC8AD598E2D0
:1009A00038D3089500918B0112E0012700938B0149
:1009B0003BCF00918B0111E0012700938B0134CFD5
:1009C00040E043D5F8E1E4EB0024E40FF01DC895C6
:1009D000FAE0E8E6002D000F0024E00FF01DC895B6
:1009E000102D3196C895F02DE12F63D5B0E0A0E62B
:1009F00000E20D930D93242F15D350D3B0E0A0E661
:100A000083D500919301002309F414C0009194014F
:100A1000002381F0B0E0A0E1042F000FA00F0091AF
:100A2000930158D70091940155D700270093930163
:100A30000093940100E449D5B0E0A0E1042F000F39
:100A4000A00F40D747D53ED745D594E1E2D298D6FE
:100A5000002349F0043009F4E7CE033021F4439534
:100A60004E30D1F3AECFADCF00000000A00A7A0A1D
:100A7000800A860A8E0A9A0A940A506C61790000EC
:100A800053746F700000416C616E746500004174B6
:100A900072617300566F6C202B00566F6C202D0016
:100AA0005375626972206469726563746F72696FED
:100AB000000066D6002311F00093780100919001A8
:100AC000002351F00A950F93CCD60F91009390011B
:100AD00000E0009378010895C4D60895BDD5009133
:100AE00009010093D24D00910A010093D34D00916A
:100AF0000B010093D44D00910C010093D54D009152
:100B000074010093D64DADD50895A6D50091D24D70
:100B1000009309010091D34D00930A010091D44D37
:100B200000930B010091D54D00930C010091D64D1F
:100B30000093740196D50895FFCFF89486D4F5E11B
:100B4000E2EBB7D4FFCF0027009374000093750049
:100B5000009376000093770001E000937800D4E0E2
:100B6000C0E060D379D50091FE05053531F70091DD
:100B7000FF050A3A11F7B5E0A6ECD0E0C4E774D55A
:100B8000D4E0C0E04FD368D500910D040093FC0081
:100B9000B4E0ACE2D0E0CDEF67D5B4E0ACE2D1E0B8
:100BA000C9E062D500911004023009F0C6CF8090F0
:100BB000240490902504A0902604B0902704880C6B
:100BC000991CAA1CBB1C20900E0430900F044424D6
:100BD000552460907400260C301C401C501C209240
:100BE0000501309206014092070150920801820CE3
:100BF000931CA41CB51C8092010190920201A0924A
:100C00000301B0920401002700930D0100930E012F
:100C100000930F010093100124D50895002402E0F1
:100C2000201A3008400850086090FC0060FC06C0A4
:100C3000220C331C441C551C6694F8CF60900101B3
:100C4000709002018090030190900401260C371CE3
:100C5000481C591C20927400309275004092760016
:100C6000509277000895220C331C441C551C220C12
:100C7000331C441C551C2F923F92632C742C852CE2
:100C80008694779467940091050110910601209154
:100C90000701309108010024060D171D281D301D85
:100CA00000937400109375002093760030937700C2
:100CB00010900D01101669F410900E01111649F4F0
:100CC00010900F01121629F410901001131609F458
:100CD0000EC000930D0110930E0120930F0130936D
:100CE000100101E000937800D6E0C0E09BD23F9075
:100CF0002F9001E03022D6E0C0E0C20DD31DACD46D
:100D00002990399049905990052D0F70502E0FE081
:100D1000501649F40FEF401631F4301621F4201626
:100D200011F408940895889408959BD48ED37AE0A2
:100D300093D4099196D4CED37A95D1F700E4C5D354
:100D40007AE08AD409918DD4C5D37A95D1F794EB02
:100D500060D1ECCFBF93AF93DF93CF930FEFD02E43
:100D6000B1E0A9E0D1E0C4E17FD4EE2400270093F4
:100D70001301F6E0E0E0F63009F400103FC0D39430
:100D80000091FC000D15A1F4209014013090150184
:100D9000409016015090170166DF08F436C020928B
:100DA0001401309215014092160150921701DD2472
:100DB00020901401309015014090160150901701B9
:100DC0002DDF209074003090750040907600509098
:100DD000770000242D0C301C401C501C2092740005
:100DE000309275004092760050927700D4E0C0E0D7
:100DF00001E00093780016D2F4E0E0E02DD4708199
:100E0000703019F0753E51F000109FC003850F300F
:100E100031F003FD98C004FD29C028C094C0EE2025
:100E200019F40027E092720101E0E02E0091110117
:100E3000003009F488C0068D8ED0048D8CD0008DD2
:100E40008AD0068988D0048986D0028984D0008916
:100E500082D0068580D001857ED007817CD0058137
:100E60007AD0038178D0018176D06DC0EE2001F177
:100E7000B1E0A1E2109172010024A10FB01D0D920A
:100E8000B1E0A1E2DB2FCA2F109172011A95002464
:100E9000A10FB01D209172012695002431E0088138
:100EA0001C9119930C93A31BB0092A95C1F71DC07F
:100EB000BF2FAE2FD1E0C1E228E0D7D300850032AA
:100EC00039F40185003221F40285003209F404C0AE
:100ED0000EE2099323E0C9D30A910881003211F48C
:100EE0000A91FBCF002721960993EE24E09272012C
:100EF000009113010395009313010091110100303B
:100F000011F100911201109113010117E1F4038511
:100F100000931801028D00931901038D00931A01AB
:100F2000048900931B01058900931C01048D009323
:100F30001D01058D00931E01068D00931F01078D75
:100F40000093200102C0B09616CF8BD3CF91DF91D2
:100F5000AF91BF910895FF93EF930030D9F00F3F09
:100F6000C9F0B1E0A1E210917201103599F00024AE
:100F7000A10FB01DFFE0EAE9C895102C3196C89585
:100F80003196112019F01016B9F7002D0D93139515
:100F900010937201EF91FF910895E161E965ED69A8
:100FA000F36FFA75C141C945CD49D34FDA55A12137
:100FB000BF3FF1EED1EE00001F93013420F00B355E
:100FC00010F410E2010F1F910895BF93AF93B1E0A9
:100FD000A1E250D311970E91EFDF033361F40E912C
:100FE000EBDF003741F40E91E7DF0D3621F4AF91CE
:100FF000BF9108940895AF91BF91889408959A95F0
:10100000F1F708959F9390E0FADF9F919A95D1F7B9
:1010100008959F939F9390E0F5DF9F919A95D1F764
:101020009F9108951127022F04561AF01395202F2F
:10103000FACF112309F035D01127022F0A501AF0E8
:101040001395202FFACF2DD0122F2BD008950F9368
:10105000102F12954DD20D930F910F93102F48D250
:101060000D930F9108950D9108D0302F0D9105D05B
:101070003295307F0F70032B0895003360F00933F1
:101080001CF4005388940895013428F007341CF4AC
:1010900007538894089500270894089500E00D935D
:1010A00008952F933F933327212F2A5012F0339521
:1010B000FCCF0AE0200F332329F01F93132F18D2FF
:1010C0000D931F91122F14D20D933F912F910895DC
:1010D00000247724112721E036E840EA402C512CE7
:1010E000622C641A530A420A28F0042C152C262C70
:1010F0001395F4CF112321F0FBD10D930FEF702E38
:10110000112720E037E240E1402C512C622C641A78
:10111000530A420A28F0262C152C042C1395F4CFE0
:1011200070FC02C0112321F0E3D10D930FEF702E5C
:10113000112723E038EE412C522C531A420A20F09A
:10114000252C142C1395F7CF70FC02C0112321F02D
:10115000CFD10D930FEF702E112720E034E6412CF4
:10116000522C531A420A20F0252C142C1395F7CF39
:1011700070FC02C0112321F0BBD10D930FEF702E34
:1011800011273AE023161CF0231A1395FBCF70FCAD
:1011900002C0112321F0ACD10D930FEF702E122D50
:1011A000A7D10D9308952F930770B0E8A8E010FD24
:1011B000AA0FA02B51D200000C9153D22F91089569
:1011C000F894F1DF00270ABBC198000009B3C19A67
:1011D00078940895F894E7DF2BBB0FEF0ABBC09813
:1011E0000000C09A7894089500E40093790008E81C
:1011F00000937A0008D011E006E020E0EBDF94E1F4
:10120000FEDE01D0089511E007E0DADF102F209113
:101210007A001223C1F7102F2091790012231217A0
:1012200091F70895BF93AF9300E40093790000E82D
:1012300000937A00E8DF14E0009178002227210F64
:101240000A95E9F72093FB0020E4009177000F70E6
:10125000200F11E006E0BEDF2091760011E005E0EE
:10126000B9DF2091750011E004E0B4DF2091740033
:1012700011E003E0AFDF2091780011E002E0AADF87
:1012800020E211E007E0A6DF11E007E099DF07FDAB
:10129000FBCF03FFF9CF00FD88C003FF86C0F894A1
:1012A00011E000E080DF00270ABB04BBB0E0ABE741
:1012B000C198000009B313B3C19A0D931D93AB3FBE
:1012C000B9F77894C9D1B0E0ABE70D910993AB3F82
:1012D000E1F7C7D10091FB000A950093FB00A1F64E
:1012E000AF91BF910895BF93AF9300E4009379004D
:1012F00000E800937A0087DF14E00091780022274D
:10130000210F0A95E9F72093FB0020E40091770074
:101310000F70200F11E006E05DDF2091760011E0F4
:1013200005E058DF2091750011E004E053DF2091C3
:10133000740011E003E04EDF2091780011E002E03C
:1013400049DF20E311E007E045DF11E007E038DF87
:1013500007FDFBCF03FFF9CF00FD27C003FF25C02A
:10136000F8947AD1B0E0ABE709910D93AB3FE1F788
:1013700078D111E000E017DF0FEF0ABB04BBB0E04B
:10138000ABE70D911D910BBB15BB0000C098000091
:10139000C09AAB3FB1F778940091FB000A95009397
:1013A000FB0099F6AF91BF910895F8944ED0F5E106
:1013B000E6EA7FD011E001E003DF8CD0FFCF000030
:1013C00000000103070300070F1F1F1C181C010169
:1013D00003070C1810001E1C100000000000000085
:1013E000101010100000000018181818000000005D
:1013F0001C1C1C1C000000001E1E1E1E0000000005
:101400001F1F1F1F000000001F1111111F000000EF
:101410001F1B151B1F0013E000E31DD095E0F9DD35
:101420001A95D1F708E317D010D00CE014D030E2B1
:10143000F3E1EEEB01D0089508E40DD0C8953196A4
:10144000002D12D03A95D1F7089501E004C007E0CD
:1014500002C006E000C00BBB0FEF0ABB04BB00E0FC
:1014600005BB1ED00AD008950BBB0FEF0ABB04BB0F
:1014700001E005BB15D001D0089502E805BB0FEFD0
:1014800004BB00270ABB0BBB959A98E2B8DD29B3D1
:10149000959827FF03C098E2B2DDF6CF959808959E
:1014A00092E3ADDD959A92E3AADD959892E3A7DDEC
:1014B00008950F930F92C895002D002319F0D4DFE3
:1014C0003196F9CF0F900F9108950F930068C3DF05
:1014D0000F9108951F930F93102F129509D0C4DF19
:1014E0000F910F93102F04D0BFDF0F911F9108951C
:1014F0002F931F7000E3010F2AE012171AF01A5001
:1015000001E4010F2F9108950D91002311F0ACDF3C
:10151000FBCF08950024A10FB01D0D91002329F0E9
:101520002F93A2DF2F912A95C1F70895B0E0A0E68E
:10153000A1D010E424E1120F101B012FC6DFB0E090
:10154000A0E6E2CF24E100E22F938EDF2F912A95CF
:10155000D1F708950102202020202020204769672C
:10156000614D50332020202000000304204A6F7377
:1015700065204C75697320422E20273033200000EF
:101580003332204B622052414D2E2E2E00005265E8
:1015900073657420646973636F2E2E2E00004F4BA9
:1015A000000045520000415441204552524F523AEA
:1015B0000000464154204552524F522100002A2A31
:1015C000204D6F646F20555342202A2A00004E6F31
:1015D000206469726563742E2076616C69646F2182
:1015E00000004E6F20686179206669636873204D42
:1015F00050332100526570722E20646972656374E5
:101600006F72696F0000526570722E206469722ECD
:1016100020616C65617400004D656A6F72617220B3
:1016200062616A6F73005669727475616C20736FC2
:1016300072726F756E640000436F6E6669672E206C
:101640006D616E646F0012B609910125089502154F
:1016500010F00219FCCF08950F9300E805BF0F9119
:1016600008950F930027FACF24E00D9109932A954E
:10167000E1F7089500271D91112311F00395FBCF89
:1016800008950024112422240CE3222319F4301796
:1016900008F4089511E0210E101C301B2009F5CF2D
:1016A0000895BA98C29ABB9AC398BC9AC49ABC9A35
:1016B000BD9ABF9AC79800E50DB90EB10895779B02
:1016C000FECF0895C49802E00FB9F9DF1FB9F7DF24
:1016D0002FB9F5DF3FB9F3DFC49A9FE090DC08959E
:1016E000C49803E00FB9EBDF1FB9E9DF00E00FB9E1
:1016F000E6DF2FB100E00FB9E2DF3FB1C49A9FE00F
:101700007EDC0895C39A0FB9000000000000C39862
:10171000D6DF08952F93C39A20E20D910FB9CFDF42
:101720002A95D9F7C3982F91089530E41BD098E0FB
:1017300070DC10E020E034E0C5DF93E06ADCB29BAF
:10174000FECF92E066DC13E02BE93BE9BBDF92E0E1
:1017500060DC13E02BE93BE9B5DF92E05ADC30E2D4
:1017600001D00895B29BFECF00E020E2CBDF2A95A6
:10177000E9F73A95B9F70895212F312F1BE0A2CF51
:1017800070DF949800270ABB0FEF0BBB9AE037DCA1
:1017900019B308E00894111F10F40A95D9F7949A28
:1017A00008950F930FB70F9305B70F931F932F93C0
:1017B00000E005BF00918D01002311F4839945C01D
:1017C000839910C0002700938F0100918E010023A0
:1017D00029F410918D01139510938D0103950093B9
:1017E0008E0133C000918E01002379F00330009107
:1017F0009101109192011795079500939101109313
:101800009201112710938E0120C000918F01039542
:1018100000938F010630C9F420918D010091910150
:1018200010919201203121F0179507952395FACF59
:101830000095109500939301109394010027009355
:101840008F0100938E0100938D010AED02BF02E02B
:1018500008BF2F911F910F9105BF0F910FBF0F91DF
:1018600018951090930120909401112019F42220D2
:1018700009F4089522272093930120939401B0E066
:10188000A0E1F8E1E4EBC8953196002091F01AD080
:10189000302E18D0402E1314B1F72414A1F7009263
:1018A0007801002D083029F0073019F001E000938D
:1018B00090010895030304040505060608080707B8
:1018C00002020000E199FECFAEBBBFBBE09A0DB3B0
:1018D00011960895E199FECFAEBBBFBB0DBBE29A56
:1018E000E19A11960895889A909A899A9198929A75
:1018F0008A980895F89400E003BFF5DFB2DEA5DD15
:10190000F5E1EEEBD6DD829B06C0D3D800917801DD
:101910000023C9F37FC3B8E4A0E0A3DEA1D09CDE1E
:101920000D9321E0003209F422E89BDE99D0102EBD
:1019300097D0202E95D0302E93D0402E8DDE1D9244
:101940002D923D924D922A9581F7009100480031E9
:10195000D1F1053031F00630E9F2003209F0D3CF91
:1019600057C07ADE1090014820900248309003481A
:101970004090044876DE00E4A8DD012DABDD022DA9
:10198000A9DD032DA7DD042DA5DD6BDE07E471D0F5
:1019900009E66FD007E66DD001E66BD00DE469D0A3
:1019A00000E567D003E365D000E263D006E761D0CD
:1019B0000AE45FD005E55DD00CE45BD000E359D0CC
:1019C00003E357D0A0CF48DE009101480093740094
:1019D000009102480093750000910348009376003F
:1019E000009104480093770001E000937800D8E468
:1019F000C1E018DCD8E4C1E020E02EDE099131DE40
:101A000038D02ADE09912DDE34D02A95B1F77BCF6C
:101A1000B8E4A5E011270D911127A530E1F7BA34FC
:101A2000D1F70D91011719F000E223D06CCF00918E
:101A300001480093740000910248009375000091E2
:101A4000034800937600009104480093770001E07A
:101A500000937800D8E4C5E046DC00E10AD053CF1B
:101A60008299FECF00270ABB9098000009B3909A94
:101A70000895112714BB1FEF15BB1ABB0BBB989918
:101A8000FECF919A000091980895E6DDBBE4A2E4B0
:101A90000A950024A00FB01D0C9100C0DDDD50E0C0
:101AA000BCE4A2E460E01091414B1517D1F066232D
:101AB00029F46D912D903D904D905D907D916A95AA
:101AC0005395501781F72092090130920A014092F4
:101AD0000B0150920C0101E000931101709312016F
:101AE00039D908950091180104FF14C01091210103
:101AF00020912201309123011E3219F4203009F483
:101B000009C01E3229F42E3219F4303009F402C013
:101B100008940895889408959FDD00270093414B11
:101B2000002700933F4B0093404B51D0BCE4A2E40C
:101B300076D008F44BC0AF93BF9300E00D930091B3
:101B40001901009309010D9300911A0100930A01F4
:101B50000D9300911B0100930B010D9300911C014B
:101B600000930C010D9300E000931101F3D874DD94
:101B7000A0901301A394BB24B394CC24BA1441F4D1
:101B8000DF91CF91C882CC2011F4BD2FAC2FD0CFE4
:101B900001E000931101B0921201DCD85DDD0091EB
:101BA000180104FD0EC011DA78F40091414B0F3F8B
:101BB00059F0C394BD920091414B03950093414B62
:101BC00003C090DF08F403D0B394D8CF08950F93E7
:101BD0001F93BF93AF93BAE4A7E200913F4B112745
:101BE000000F111F000F111FA00FB11F009119014D
:101BF0000D9300911A010D9300911B010D9300911B
:101C00001C010D9300913F4B0395063409F4002706
:101C100000933F4BAF91BF911F910F9108950F9388
:101C20001F93BF93AF930091404B10913F4B01170F
:101C300011F4089420C0BAE4A7E20091404B1127A8
:101C4000000F111F000F111FA00FB11F0D91009366
:101C500019010D9100931A010D9100931B010D9133
:101C600000931C010091404B0395063409F40027B2
:101C70000093404B8894AF91BF911F910F910895AD
:00000001FF
